:100000000C9461000C947E000C947E000C947E0095
:100010000C947E000C947E000C947E000C947E0068
:100020000C947E000C9484010C947E000C947E0051
:100030000C947E000C947E000C947E000C947E0048
:100040000C943A010C947E000C947E000C947E007B
:100050000C947E000C947E000C947E000C947E0028
:100060000C947E000C947E00000000002400270009
:100070002A0000000000250028002B0000000000DE
:1000800023002600290004040404040404040202DA
:100090000202020203030303030301020408102007
:1000A0004080010204081020010204081020000012
:1000B0000008000201000003040700000000000027
:1000C000000011241FBECFEFD8E0DEBFCDBF11E08E
:1000D000A0E0B1E0ECEFF6E002C005900D92A23096
:1000E000B107D9F721E0A2E0B1E001C01D92AA3129
:1000F000B207E1F70E94F6010C947C030C94000017
:10010000833081F028F4813099F08230A9F008958D
:100110008730A9F08830C9F08430B1F48091800034
:100120008F7D03C0809180008F7780938000089539
:1001300084B58F7784BD089584B58F7DFBCF809182
:10014000B0008F778093B00008958091B0008F7DCC
:10015000F9CF1F93CF93DF93282F30E0F901E255B9
:10016000FF4F8491F901E656FF4FD491F901EA5708
:10017000FF4FC491CC23A9F0162F81110E9480005B
:10018000EC2FF0E0EE0FFF1FEE58FF4FA591B4915A
:100190008FB7F894EC91111108C0D095DE23DC9351
:1001A0008FBFDF91CF911F910895DE2BF8CFCF93B2
:1001B000C09100016C2F86E00E94A90081E0C82751
:1001C000C0930001CF910895CF93DF9390E0FC019D
:1001D000E656FF4F24918A579F4FFC018491882354
:1001E000D1F090E0880F991FFC01E859FF4FA591CD
:1001F000B491FC01EE58FF4FC591D49161110EC02E
:100200009FB7F8948C91E22FE0958E238C932881F0
:10021000E223E8839FBFDF91CF9108958FB7F894D1
:10022000EC91E22BEC938FBFF6CF3FB7F89480911F
:10023000070190910801A0910901B0910A0126B52A
:10024000A89B05C02F3F19F00196A11DB11D3FBF0E
:10025000BA2FA92F982F8827BC01CD01620F711DDD
:10026000811D911D43E0660F771F881F991F4A95D6
:10027000D1F708951F920F920FB60F9211242F936A
:100280003F938F939F93AF93BF938091030190917E
:100290000401A0910501B09106013091020126E010
:1002A000230F2D3758F50296A11DB11D2093020191
:1002B0008093030190930401A0930501B09306017C
:1002C0008091070190910801A0910901B0910A0164
:1002D0000196A11DB11D8093070190930801A09381
:1002E0000901B0930A01BF91AF919F918F913F9106
:1002F0002F910F900FBE0F901F90189529E8230F94
:100300000396A11DB11DD2CF1F920F920FB60F926F
:1003100011242F933F934F935F936F937F938F930A
:100320009F93AF93BF93EF93FF93809111019091AF
:1003300012018093B2008091140190911501A09157
:100340001601B09117010196A11DB11D80931401F2
:1003500090931501A0931601B09317018091140199
:1003600090911501A0911601B091170140910D01D6
:1003700050910E0160910F01709110018417950743
:10038000A607B70710F18091130181111EC081E00B
:10039000809313018091140190911501A091160191
:1003A000B0911701841B950BA60BB70B809314011A
:1003B00090931501A0931601B0931701E0910B01E2
:1003C000F0910C01099510921301FF91EF91BF91EB
:1003D000AF919F918F917F916F915F914F913F91DD
:1003E0002F910F900FBE0F901F901895789484B5A1
:1003F000826084BD84B5816084BD85B5826085BD21
:1004000085B5816085BD80916E00816080936E00AE
:1004100010928100809181008260809381008091A0
:100420008100816080938100809180008160809351
:1004300080008091B10084608093B1008091B00011
:1004400081608093B00080917A00846080937A000C
:1004500080917A00826080937A0080917A008E7F0A
:1004600080937A0080917A00806880937A0010925D
:10047000C10061E08DE00E94E40061E08CE00E9438
:10048000E40061E08BE00E94E40061E08AE00E9409
:10049000E40060E087E00E94E40061E083E00E9405
:1004A000E40061E086E00E94E40080ED97E0A0E0D7
:1004B000B0E080930D0190930E01A0930F01B093D3
:1004C000100187ED90E090930C0180930B018091D7
:1004D00070008E7F809370008091B0008C7F80933D
:1004E000B0008091B100877F8093B1008091B60009
:1004F0008F7D8093B600809170008D7F8093700017
:100500008091B10084608093B1008091B1008C7FB4
:100510008093B10083E890E09093120180931101E1
:1005200010921401109215011092160110921701E9
:100530001092130180911101909112018093B200E9
:10054000809170008160809370002DE8822E20E001
:10055000922E01EB10E0CFE7D0E03FE7332E40E0F2
:10056000A42E40E0B42EE5EBF0E08491E1EAF0E067
:10057000F490F401E490E11042C060E08DE00E944C
:10058000A90060E08CE00E94A90060E08BE00E947E
:10059000A90060E08AE00E94A90080911801909172
:1005A0001901853091050CF44DC01092190110927B
:1005B00018010E9415012B013C018AE8C82E82E037
:1005C000D82EE12CF12C0E941501641975098609B9
:1005D0009709683E734081059105A8F3F1E0CF1AB1
:1005E000D108E108F10828EE420E23E0521E611CFA
:1005F000711CC114D104E104F10429F70FC0811169
:100600000E948000EE2DF0E0EE0FFF1FE458FF4F38
:10061000A591B4918C91F82209F4AFCF61E083E009
:100620000E94E400F8018491833009F44BC050F536
:100630008130C1F1823009F440C060E083E00E9463
:10064000A90034C00196909319018093180182305B
:10065000910591F044F4019709F0ABCF61E08DE092
:100660000E94A900A6CF8330910549F0049709F0B4
:10067000A0CF61E08AE0F4CF61E08CE0F1CF61E0EF
:100680008BE0EECF873041F1883071F18430A9F6EC
:1006900080918000806280938000D0938B00C09313
:1006A0008A0004C084B5806884BD37BCA114B1043D
:1006B00009F459CF0E94000056CF84B5806284BDF2
:1006C00038BCF4CF80918000806880938000D09304
:1006D0008900C0938800EACF8091B0008068809341
:1006E000B0003092B300E2CF8091B000806280937E
:0C06F000B0003092B400DACFF894FFCFD5
:0206FC000100FB
:00000001FF
