:020000040000FA
:100000000C9461000C947E000C947E000C947E0095
:100010000C947E000C947E000C947E000C947E0068
:100020000C947E000C9484010C947E000C947E0051
:100030000C947E000C947E000C947E000C947E0048
:100040000C943A010C947E000C947E000C947E007B
:100050000C947E000C947E000C947E000C947E0028
:100060000C947E000C947E00000000002400270009
:100070002A0000000000250028002B0000000000DE
:1000800023002600290004040404040404040202DA
:100090000202020203030303030301020408102007
:1000A0004080010204081020010204081020000012
:1000B0000008000201000003040700000000000027
:1000C000000011241FBECFEFD8E0DEBFCDBF11E08E
:1000D000A0E0B1E0ECEFF6E002C005900D92A23096
:1000E000B107D9F721E0A2E0B1E001C01D92AA3129
:1000F000B207E1F70E94F6010C947C030C94000017
:10010000833081F028F4813099F08230A9F008958D
:100110008730A9F08830C9F08430B1F48091800034
:100120008F7D03C0809180008F7780938000089539
:1001300084B58F7784BD089584B58F7DFBCF809182
:10014000B0008F778093B00008958091B0008F7DCC
:10015000F9CF1F93CF93DF93282F30E0F901E255B9
:10016000FF4F8491F901E656FF4FD491F901EA5708
:10017000FF4FC491CC23A9F0162F81110E9480005B
:10018000EC2FF0E0EE0FFF1FEE58FF4FA591B4915A
:100190008FB7F894EC91111108C0D095DE23DC9351
:1001A0008FBFDF91CF911F910895DE2BF8CFCF93B2
:1001B000C09100016C2F86E00E94A90081E0C82751
:1001C000C0930001CF910895CF93DF9390E0FC019D
:1001D000E656FF4F24918A579F4FFC018491882354
:1001E000D1F090E0880F991FFC01E859FF4FA591CD
:1001F000B491FC01EE58FF4FC591D49161110EC02E
:100200009FB7F8948C91E22FE0958E238C932881F0
:10021000E223E8839FBFDF91CF9108958FB7F894D1
:10022000EC91E22BEC938FBFF6CF3FB7F89480911F
:10023000070190910801A0910901B0910A0126B52A
:10024000A89B05C02F3F19F00196A11DB11D3FBF0E
:10025000BA2FA92F982F8827BC01CD01620F711DDD
:10026000811D911D43E0660F771F881F991F4A95D6
:10027000D1F708951F920F920FB60F9211242F936A
:100280003F938F939F93AF93BF938091030190917E
:100290000401A0910501B09106013091020126E010
:1002A000230F2D3758F50296A11DB11D2093020191
:1002B0008093030190930401A0930501B09306017C
:1002C0008091070190910801A0910901B0910A0164
:1002D0000196A11DB11D8093070190930801A09381
:1002E0000901B0930A01BF91AF919F918F913F9106
:1002F0002F910F900FBE0F901F90189529E8230F94
:100300000396A11DB11DD2CF1F920F920FB60F926F
:1003100011242F933F934F935F936F937F938F930A
:100320009F93AF93BF93EF93FF93809111019091AF
:1003300012018093B2008091140190911501A09157
:100340001601B09117010196A11DB11D80931401F2
:1003500090931501A0931601B09317018091140199
:1003600090911501A0911601B091170140910D01D6
:1003700050910E0160910F01709110018417950743
:10038000A607B70710F18091130181111EC081E00B
:10039000809313018091140190911501A091160191
:1003A000B0911701841B950BA60BB70B809314011A
:1003B00090931501A0931601B0931701E0910B01E2
:1003C000F0910C01099510921301FF91EF91BF91EB
:1003D000AF919F918F917F916F915F914F913F91DD
:1003E0002F910F900FBE0F901F901895789484B5A1
:1003F000826084BD84B5816084BD85B5826085BD21
:1004000085B5816085BD80916E00816080936E00AE
:1004100010928100809181008260809381008091A0
:100420008100816080938100809180008160809351
:1004300080008091B10084608093B1008091B00011
:1004400081608093B00080917A00846080937A000C
:1004500080917A00826080937A0080917A008E7F0A
:1004600080937A0080917A00806880937A0010925D
:10047000C10061E08DE00E94E40061E08CE00E9438
:10048000E40061E08BE00E94E40061E08AE00E9409
:10049000E40060E087E00E94E40061E083E00E9405
:1004A000E40061E086E00E94E40080ED97E0A0E0D7
:1004B000B0E080930D0190930E01A0930F01B093D3
:1004C000100187ED90E090930C0180930B018091D7
:1004D00070008E7F809370008091B0008C7F80933D
:1004E000B0008091B100877F8093B1008091B60009
:1004F0008F7D8093B600809170008D7F8093700017
:100500008091B10084608093B1008091B1008C7FB4
:100510008093B10083E890E09093120180931101E1
:1005200010921401109215011092160110921701E9
:100530001092130180911101909112018093B200E9
:10054000809170008160809370002DE8822E20E001
:10055000922E01EB10E0CFE7D0E03FE7332E40E0F2
:10056000A42E40E0B42EE5EBF0E08491E1EAF0E067
:10057000F490F401E490E11042C060E08DE00E944C
:10058000A90060E08CE00E94A90060E08BE00E947E
:10059000A90060E08AE00E94A90080911801909172
:1005A0001901853091050CF44DC01092190110927B
:1005B00018010E9415012B013C018AE8C82E82E037
:1005C000D82EE12CF12C0E941501641975098609B9
:1005D0009709683E734081059105A8F3F1E0CF1AB1
:1005E000D108E108F10828EE420E23E0521E611CFA
:1005F000711CC114D104E104F10429F70FC0811169
:100600000E948000EE2DF0E0EE0FFF1FE458FF4F38
:10061000A591B4918C91F82209F4AFCF61E083E009
:100620000E94E400F8018491833009F44BC050F536
:100630008130C1F1823009F440C060E083E00E9463
:10064000A90034C00196909319018093180182305B
:10065000910591F044F4019709F0ABCF61E08DE092
:100660000E94A900A6CF8330910549F0049709F0B4
:10067000A0CF61E08AE0F4CF61E08CE0F1CF61E0EF
:100680008BE0EECF873041F1883071F18430A9F6EC
:1006900080918000806280938000D0938B00C09313
:1006A0008A0004C084B5806884BD37BCA114B1043D
:1006B00009F459CF0E94000056CF84B5806284BDF2
:1006C00038BCF4CF80918000806880938000D09304
:1006D0008900C0938800EACF8091B0008068809341
:1006E000B0003092B300E2CF8091B000806280937E
:0E06F000B0003092B400DACFF894FFCF0100D2
:107800000C94343C0C94513C0C94513C0C94513CE1
:107810000C94513C0C94513C0C94513C0C94513CB4
:107820000C94513C0C94513C0C94513C0C94513CA4
:107830000C94513C0C94513C0C94513C0C94513C94
:107840000C94513C0C94513C0C94513C0C94513C84
:107850000C94513C0C94513C0C94513C0C94513C74
:107860000C94513C0C94513C11241FBECFEFD8E036
:10787000DEBFCDBF11E0A0E0B1E0EAE8FFE702C063
:1078800005900D92A230B107D9F712E0A2E0B1E065
:1078900001C01D92AD30B107E1F70E942D3D0C945F
:1078A000C33F0C94003C982F95959595959595958B
:1078B000905D8F708A307CF0282F295A8091C0000B
:1078C00085FFFCCF9093C6008091C00085FFFCCF60
:1078D0002093C6000895282F205DF0CF982F809127
:1078E000C00085FFFCCF9093C6000895EF92FF92F1
:1078F0000F931F93EE24FF2487018091C00087FD22
:1079000017C00894E11CF11C011D111D81E2E8164D
:1079100081EAF80687E0080780E0180770F3E09135
:107920000401F091050109958091C00087FFE9CF1E
:107930008091C6001F910F91FF90EF9008950E94D3
:10794000763C982F8091C00085FFFCCF9093C600B5
:1079500091362CF490330CF09053892F089597555D
:10796000892F08951F930E949F3C182F0E949F3CCF
:107970001295107F810F1F9108951F93182F882350
:1079800021F00E94763C1150E1F71F9108951F935A
:10799000182F0E94763C803249F0809103018F5F5E
:1079A000809303018530C1F01F9108958091C0003C
:1079B00085FFFCCF84E18093C6008091C00085FFE5
:1079C000FCCF1093C6008091C00085FFFCCF80E102
:1079D0008093C6001F910895E0910401F091050184
:1079E00009951F9108950E94763C803241F0809164
:1079F00003018F5F80930301853081F008958091AA
:107A0000C00085FFFCCF84E18093C6008091C00058
:107A100085FFFCCF80E18093C6000895E0910401CA
:107A2000F09105010995089548EC50E08823A1F0F4
:107A30002D9A28EE33E0FA013197F1F721503040CA
:107A4000D1F72D9828EE33E0FA013197F1F7215064
:107A50003040D1F7815061F708953F924F925F9285
:107A60006F927F928F929F92AF92BF92CF92DF924E
:107A7000EF92FF920F931F93CF93DF93000082E06A
:107A80008093C00080E18093C4001092C50088E11B
:107A90008093C10086E08093C2005098589A259A3E
:107AA00081E00E94143D24E1F22E9EE1E92E85E959
:107AB000D82E0FE0C02E10E1B12EAA24A394B1E479
:107AC0009B2EA6E58A2EF2E57F2EE0E26E2E79E46B
:107AD000572E63E5462E50E5352E0E94763C8033C6
:107AE000B1F18133B9F1803409F46FC0813409F404
:107AF00076C0823409F485C0853409F488C08035A5
:107B000031F1823521F1813511F1853509F485C0D6
:107B1000863509F48DC0843609F496C0843709F49B
:107B200003C1853709F472C1863709F466C08091B4
:107B300003018F5F80930301853079F6E0910401A2
:107B4000F091050109950E94763C803351F60E9420
:107B5000F33CC3CF0E94763C803249F78091C0004D
:107B600085FFFCCFF092C6008091C00085FFFCCF5E
:107B70009092C6008091C00085FFFCCF8092C60025
:107B80008091C00085FFFCCF7092C6008091C0003C
:107B900085FFFCCF6092C6008091C00085FFFCCFBE
:107BA0005092C6008091C00085FFFCCF4092C60075
:107BB0008091C00085FFFCCF3092C6008091C0004C
:107BC00085FFFCCFB092C60088CF0E94763C8638F5
:107BD00008F4BDCF0E94763C0E94F33C7ECF0E9409
:107BE000763C803809F49CC0813809F40BC1823896
:107BF00009F430C1883909F48FC080E00E94C73C85
:107C00006CCF84E10E94BD3C0E94F33C66CF85E0CE
:107C10000E94BD3C0E94F33C60CF0E94763C809362
:107C200006010E94763C809307010E94F33C55CFE9
:107C30000E94763C803309F411C183E00E94BD3C70
:107C400080E00E94C73C49CF0E94763C80930902A5
:107C50000E94763C8093080280910C028E7F809374
:107C60000C020E94763C853409F409C18091080217
:107C700090910902892B89F000E010E00E94763C87
:107C8000F801E85FFE4F80830F5F1F4F809108026D
:107C9000909109020817190788F30E94763C8032F8
:107CA00009F045CF80910C0280FFF5C0609106017C
:107CB00070910701660F771F7093070160930601AB
:107CC000A0910802B09109021097C9F0E8E0F1E034
:107CD0009B01AD014E0F5F1FF999FECF32BD21BD53
:107CE000819180BDFA9AF99A2F5F3F4FE417F5070B
:107CF00099F76A0F7B1F70930701609306018091CB
:107D0000C00085FFFCCFF092C6008091C00085FFC7
:107D1000FCCFB092C600E1CE83E00E94C73CDDCE2E
:107D200082E00E94C73CD9CE0E94763C8093090233
:107D30000E94763C80930802809106019091070191
:107D4000880F991F90930701809306010E94763C4B
:107D5000853409F49AC080910C028E7F80930C02C6
:107D60000E94763C803209F0B8CE8091C00085FF39
:107D7000FCCFF092C600A0910802B09109021097C2
:107D8000C1F180910C02082F0170182F1695117007
:107D9000E0910601F0910701AF014F5F5F4FBA011B
:107DA00020E030E00023B1F4112339F49491809164
:107DB000C00085FFFCCF9093C6002F5F3F4FCB01E3
:107DC0000196FA012A173B0780F4BC014F5F5F4F11
:107DD000002351F3F999FECFF2BDE1BDF89A90B5B9
:107DE0008091C00085FFFCCFE6CF709307016093C0
:107DF00006018091C00085FDE5CE8091C00085FF21
:107E0000F8CFE0CE81E00E94C73C67CE0E94763C6E
:107E1000803209F08CCE8091C00085FFFCCFF092BB
:107E2000C6008091C00085FFFCCFE092C600809123
:107E3000C00085FFFCCFD092C6008091C00085FFB6
:107E4000FCCFC092C6008091C00085FFFCCFB092ED
:107E5000C60043CE80E10E94C73C3FCE0E94763CE4
:107E60000E94763C182F0E94763C112309F483C0AF
:107E7000113009F484C08FE00E94C73C2ECE80915F
:107E80000C02816080930C02F1CE80910C02816023
:107E900080930C0265CF809107018823880F880B9F
:107EA0008A2180930B028091060190910701880F2F
:107EB000991F90930701809306018091080280FF2B
:107EC00009C08091080290910902019690930902DD
:107ED00080930802F894F999FECF1127E0910601EA
:107EE000F0910701C8E0D1E0809108029091090269
:107EF000103091F40091570001700130D9F303E084
:107F000000935700E8950091570001700130D9F3B4
:107F100001E100935700E8950990199000915700EE
:107F200001700130D9F301E000935700E8951395F3
:107F3000103498F011270091570001700130D9F3E7
:107F400005E000935700E89500915700017001305B
:107F5000D9F301E100935700E8953296029709F0B2
:107F6000C7CF103011F00296E5CF11248091C000E8
:107F700085FFC5CEC8CE8EE10E94C73CAECD85E957
:0C7F80000E94C73CAACDF894FFCF8000FF
:00000001FF
